{
  "contractName": "LandManagementSystem",
  "abi": [
    {
      "inputs": [],
      "stateMutability": "nonpayable",
      "type": "constructor"
    },
    {
      "anonymous": false,
      "inputs": [
        {
          "indexed": true,
          "internalType": "uint256",
          "name": "id",
          "type": "uint256"
        },
        {
          "indexed": true,
          "internalType": "address",
          "name": "owner",
          "type": "address"
        },
        {
          "indexed": false,
          "internalType": "uint256",
          "name": "price",
          "type": "uint256"
        }
      ],
      "name": "LandForSale",
      "type": "event"
    },
    {
      "anonymous": false,
      "inputs": [
        {
          "indexed": true,
          "internalType": "uint256",
          "name": "id",
          "type": "uint256"
        },
        {
          "indexed": true,
          "internalType": "address",
          "name": "buyer",
          "type": "address"
        },
        {
          "indexed": false,
          "internalType": "uint256",
          "name": "price",
          "type": "uint256"
        }
      ],
      "name": "LandSold",
      "type": "event"
    },
    {
      "anonymous": false,
      "inputs": [
        {
          "indexed": false,
          "internalType": "address",
          "name": "message",
          "type": "address"
        }
      ],
      "name": "LogDebug",
      "type": "event"
    },
    {
      "anonymous": false,
      "inputs": [
        {
          "indexed": true,
          "internalType": "address",
          "name": "previousOwner",
          "type": "address"
        },
        {
          "indexed": true,
          "internalType": "address",
          "name": "newOwner",
          "type": "address"
        }
      ],
      "name": "OwnershipTransferred",
      "type": "event"
    },
    {
      "inputs": [],
      "name": "totalLands",
      "outputs": [
        {
          "internalType": "uint256",
          "name": "",
          "type": "uint256"
        }
      ],
      "stateMutability": "view",
      "type": "function",
      "constant": true
    },
    {
      "inputs": [
        {
          "internalType": "string",
          "name": "_name",
          "type": "string"
        },
        {
          "internalType": "uint256",
          "name": "_mutationNumber",
          "type": "uint256"
        },
        {
          "components": [
            {
              "internalType": "string",
              "name": "state",
              "type": "string"
            },
            {
              "internalType": "string",
              "name": "district",
              "type": "string"
            },
            {
              "internalType": "string",
              "name": "village",
              "type": "string"
            },
            {
              "internalType": "string",
              "name": "tehsil",
              "type": "string"
            },
            {
              "internalType": "string",
              "name": "pincode",
              "type": "string"
            },
            {
              "internalType": "string",
              "name": "latitude",
              "type": "string"
            },
            {
              "internalType": "string",
              "name": "longitude",
              "type": "string"
            },
            {
              "internalType": "uint256",
              "name": "area",
              "type": "uint256"
            }
          ],
          "internalType": "struct LandManagementSystem.Location",
          "name": "_location",
          "type": "tuple"
        },
        {
          "internalType": "string",
          "name": "_recordHash",
          "type": "string"
        },
        {
          "internalType": "uint256",
          "name": "_price",
          "type": "uint256"
        },
        {
          "internalType": "bool",
          "name": "_isForSale",
          "type": "bool"
        }
      ],
      "name": "addLandRecord",
      "outputs": [],
      "stateMutability": "nonpayable",
      "type": "function"
    },
    {
      "inputs": [
        {
          "internalType": "uint256",
          "name": "_id",
          "type": "uint256"
        }
      ],
      "name": "getLandRecord",
      "outputs": [
        {
          "internalType": "uint256",
          "name": "",
          "type": "uint256"
        },
        {
          "internalType": "string",
          "name": "",
          "type": "string"
        },
        {
          "components": [
            {
              "internalType": "string",
              "name": "state",
              "type": "string"
            },
            {
              "internalType": "string",
              "name": "district",
              "type": "string"
            },
            {
              "internalType": "string",
              "name": "village",
              "type": "string"
            },
            {
              "internalType": "string",
              "name": "tehsil",
              "type": "string"
            },
            {
              "internalType": "string",
              "name": "pincode",
              "type": "string"
            },
            {
              "internalType": "string",
              "name": "latitude",
              "type": "string"
            },
            {
              "internalType": "string",
              "name": "longitude",
              "type": "string"
            },
            {
              "internalType": "uint256",
              "name": "area",
              "type": "uint256"
            }
          ],
          "internalType": "struct LandManagementSystem.Location",
          "name": "",
          "type": "tuple"
        },
        {
          "internalType": "string",
          "name": "",
          "type": "string"
        },
        {
          "internalType": "bool",
          "name": "",
          "type": "bool"
        },
        {
          "internalType": "bool",
          "name": "",
          "type": "bool"
        },
        {
          "internalType": "uint256",
          "name": "",
          "type": "uint256"
        }
      ],
      "stateMutability": "view",
      "type": "function",
      "constant": true
    },
    {
      "inputs": [
        {
          "internalType": "uint256",
          "name": "_id",
          "type": "uint256"
        }
      ],
      "name": "verifyLandRecord",
      "outputs": [],
      "stateMutability": "nonpayable",
      "type": "function"
    },
    {
      "inputs": [
        {
          "internalType": "uint256",
          "name": "_id",
          "type": "uint256"
        }
      ],
      "name": "buyLand",
      "outputs": [],
      "stateMutability": "payable",
      "type": "function",
      "payable": true
    },
    {
      "inputs": [
        {
          "internalType": "uint256",
          "name": "_id",
          "type": "uint256"
        },
        {
          "internalType": "uint256",
          "name": "_price",
          "type": "uint256"
        }
      ],
      "name": "sellLand",
      "outputs": [],
      "stateMutability": "nonpayable",
      "type": "function"
    },
    {
      "inputs": [
        {
          "internalType": "uint256",
          "name": "_id",
          "type": "uint256"
        },
        {
          "internalType": "address",
          "name": "newOwner",
          "type": "address"
        }
      ],
      "name": "transferOwnership",
      "outputs": [],
      "stateMutability": "nonpayable",
      "type": "function"
    },
    {
      "inputs": [
        {
          "internalType": "address",
          "name": "_officialAddress",
          "type": "address"
        }
      ],
      "name": "addGovernmentOfficial",
      "outputs": [],
      "stateMutability": "nonpayable",
      "type": "function"
    },
    {
      "inputs": [
        {
          "internalType": "address",
          "name": "_officialAddress",
          "type": "address"
        }
      ],
      "name": "removeGovernmentOfficial",
      "outputs": [],
      "stateMutability": "nonpayable",
      "type": "function"
    },
    {
      "inputs": [
        {
          "internalType": "address",
          "name": "_officialAddress",
          "type": "address"
        }
      ],
      "name": "isGovernmentOfficial",
      "outputs": [
        {
          "internalType": "bool",
          "name": "",
          "type": "bool"
        }
      ],
      "stateMutability": "view",
      "type": "function",
      "constant": true
    },
    {
      "inputs": [],
      "name": "isCurrentGovernmentOfficial",
      "outputs": [
        {
          "internalType": "bool",
          "name": "",
          "type": "bool"
        }
      ],
      "stateMutability": "view",
      "type": "function",
      "constant": true
    },
    {
      "inputs": [],
      "name": "isAdmin",
      "outputs": [
        {
          "internalType": "bool",
          "name": "",
          "type": "bool"
        }
      ],
      "stateMutability": "nonpayable",
      "type": "function"
    },
    {
      "inputs": [],
      "name": "getLandRecordCount",
      "outputs": [
        {
          "internalType": "uint256",
          "name": "",
          "type": "uint256"
        }
      ],
      "stateMutability": "view",
      "type": "function",
      "constant": true
    },
    {
      "inputs": [],
      "name": "getVerifiedLandRecords",
      "outputs": [
        {
          "components": [
            {
              "internalType": "uint256",
              "name": "id",
              "type": "uint256"
            },
            {
              "internalType": "address",
              "name": "owner",
              "type": "address"
            },
            {
              "internalType": "string",
              "name": "name",
              "type": "string"
            },
            {
              "internalType": "uint256",
              "name": "mutationNumber",
              "type": "uint256"
            },
            {
              "components": [
                {
                  "internalType": "string",
                  "name": "state",
                  "type": "string"
                },
                {
                  "internalType": "string",
                  "name": "district",
                  "type": "string"
                },
                {
                  "internalType": "string",
                  "name": "village",
                  "type": "string"
                },
                {
                  "internalType": "string",
                  "name": "tehsil",
                  "type": "string"
                },
                {
                  "internalType": "string",
                  "name": "pincode",
                  "type": "string"
                },
                {
                  "internalType": "string",
                  "name": "latitude",
                  "type": "string"
                },
                {
                  "internalType": "string",
                  "name": "longitude",
                  "type": "string"
                },
                {
                  "internalType": "uint256",
                  "name": "area",
                  "type": "uint256"
                }
              ],
              "internalType": "struct LandManagementSystem.Location",
              "name": "location",
              "type": "tuple"
            },
            {
              "internalType": "string",
              "name": "recordHash",
              "type": "string"
            },
            {
              "internalType": "uint256",
              "name": "price",
              "type": "uint256"
            },
            {
              "internalType": "bool",
              "name": "isForSale",
              "type": "bool"
            },
            {
              "internalType": "bool",
              "name": "isVerified",
              "type": "bool"
            }
          ],
          "internalType": "struct LandManagementSystem.LandRecord[]",
          "name": "",
          "type": "tuple[]"
        }
      ],
      "stateMutability": "view",
      "type": "function",
      "constant": true
    },
    {
      "inputs": [],
      "name": "getUnverifiedLandRecords",
      "outputs": [
        {
          "components": [
            {
              "internalType": "uint256",
              "name": "id",
              "type": "uint256"
            },
            {
              "internalType": "address",
              "name": "owner",
              "type": "address"
            },
            {
              "internalType": "string",
              "name": "name",
              "type": "string"
            },
            {
              "internalType": "uint256",
              "name": "mutationNumber",
              "type": "uint256"
            },
            {
              "components": [
                {
                  "internalType": "string",
                  "name": "state",
                  "type": "string"
                },
                {
                  "internalType": "string",
                  "name": "district",
                  "type": "string"
                },
                {
                  "internalType": "string",
                  "name": "village",
                  "type": "string"
                },
                {
                  "internalType": "string",
                  "name": "tehsil",
                  "type": "string"
                },
                {
                  "internalType": "string",
                  "name": "pincode",
                  "type": "string"
                },
                {
                  "internalType": "string",
                  "name": "latitude",
                  "type": "string"
                },
                {
                  "internalType": "string",
                  "name": "longitude",
                  "type": "string"
                },
                {
                  "internalType": "uint256",
                  "name": "area",
                  "type": "uint256"
                }
              ],
              "internalType": "struct LandManagementSystem.Location",
              "name": "location",
              "type": "tuple"
            },
            {
              "internalType": "string",
              "name": "recordHash",
              "type": "string"
            },
            {
              "internalType": "uint256",
              "name": "price",
              "type": "uint256"
            },
            {
              "internalType": "bool",
              "name": "isForSale",
              "type": "bool"
            },
            {
              "internalType": "bool",
              "name": "isVerified",
              "type": "bool"
            }
          ],
          "internalType": "struct LandManagementSystem.LandRecord[]",
          "name": "",
          "type": "tuple[]"
        }
      ],
      "stateMutability": "view",
      "type": "function",
      "constant": true
    },
    {
      "inputs": [
        {
          "internalType": "address",
          "name": "_user",
          "type": "address"
        }
      ],
      "name": "getLandRecordsForCurrentUser",
      "outputs": [
        {
          "components": [
            {
              "internalType": "uint256",
              "name": "id",
              "type": "uint256"
            },
            {
              "internalType": "address",
              "name": "owner",
              "type": "address"
            },
            {
              "internalType": "string",
              "name": "name",
              "type": "string"
            },
            {
              "internalType": "uint256",
              "name": "mutationNumber",
              "type": "uint256"
            },
            {
              "components": [
                {
                  "internalType": "string",
                  "name": "state",
                  "type": "string"
                },
                {
                  "internalType": "string",
                  "name": "district",
                  "type": "string"
                },
                {
                  "internalType": "string",
                  "name": "village",
                  "type": "string"
                },
                {
                  "internalType": "string",
                  "name": "tehsil",
                  "type": "string"
                },
                {
                  "internalType": "string",
                  "name": "pincode",
                  "type": "string"
                },
                {
                  "internalType": "string",
                  "name": "latitude",
                  "type": "string"
                },
                {
                  "internalType": "string",
                  "name": "longitude",
                  "type": "string"
                },
                {
                  "internalType": "uint256",
                  "name": "area",
                  "type": "uint256"
                }
              ],
              "internalType": "struct LandManagementSystem.Location",
              "name": "location",
              "type": "tuple"
            },
            {
              "internalType": "string",
              "name": "recordHash",
              "type": "string"
            },
            {
              "internalType": "uint256",
              "name": "price",
              "type": "uint256"
            },
            {
              "internalType": "bool",
              "name": "isForSale",
              "type": "bool"
            },
            {
              "internalType": "bool",
              "name": "isVerified",
              "type": "bool"
            }
          ],
          "internalType": "struct LandManagementSystem.LandRecord[]",
          "name": "",
          "type": "tuple[]"
        }
      ],
      "stateMutability": "view",
      "type": "function",
      "constant": true
    },
    {
      "inputs": [],
      "name": "whoIsAdmin",
      "outputs": [
        {
          "internalType": "address",
          "name": "",
          "type": "address"
        }
      ],
      "stateMutability": "view",
      "type": "function",
      "constant": true
    },
    {
      "inputs": [
        {
          "internalType": "uint256",
          "name": "mutationNumber",
          "type": "uint256"
        }
      ],
      "name": "getLandIdByMutationNumber",
      "outputs": [
        {
          "internalType": "uint256",
          "name": "",
          "type": "uint256"
        }
      ],
      "stateMutability": "view",
      "type": "function",
      "constant": true
    }
  ],
  "bytecode": "0x6080604052600060035534801561001557600080fd5b5033600460006101000a81548173ffffffffffffffffffffffffffffffffffffffff021916908373ffffffffffffffffffffffffffffffffffffffff160217905550614bd0806100666000396000f3fe6080604052600436106101095760003560e01c8063632ce0f811610095578063ae94090311610064578063ae9409031461036f578063b6db75a014610398578063c346f07f146103c3578063cbd777a2146103ee578063ced395581461042b57610109565b8063632ce0f8146102c757806392a42c5f146102f25780639ad5e3411461031d578063ad525cb71461034657610109565b806329882853116100dc57806329882853146101ce5780632e3f84ec146101f9578063382357a41461023657806348fab59d1461025f57806358675e881461028a57610109565b80630a2bf2f51461010e57806312529355146101515780631d8de0631461017a57806329507f73146101a5575b600080fd5b34801561011a57600080fd5b506101356004803603810190610130919061330c565b610447565b6040516101489796959493929190613526565b60405180910390f35b34801561015d57600080fd5b5061017860048036038101906101739190613608565b610af6565b005b34801561018657600080fd5b5061018f610be0565b60405161019c9190613635565b60405180910390f35b3480156101b157600080fd5b506101cc60048036038101906101c79190613650565b610be6565b005b3480156101da57600080fd5b506101e3610e84565b6040516101f09190613635565b60405180910390f35b34801561020557600080fd5b50610220600480360381019061021b9190613608565b610e8e565b60405161022d9190613690565b60405180910390f35b34801561024257600080fd5b5061025d60048036038101906102589190613608565b610ee4565b005b34801561026b57600080fd5b50610274610fc6565b6040516102819190613938565b60405180910390f35b34801561029657600080fd5b506102b160048036038101906102ac9190613608565b611700565b6040516102be9190613938565b60405180910390f35b3480156102d357600080fd5b506102dc611ebe565b6040516102e99190613969565b60405180910390f35b3480156102fe57600080fd5b50610307611ee8565b6040516103149190613938565b60405180910390f35b34801561032957600080fd5b50610344600480360381019061033f9190613c7d565b612624565b005b34801561035257600080fd5b5061036d6004803603810190610368919061330c565b612b8d565b005b34801561037b57600080fd5b5061039660048036038101906103919190613d5e565b612cb3565b005b3480156103a457600080fd5b506103ad612e8a565b6040516103ba9190613690565b60405180910390f35b3480156103cf57600080fd5b506103d8612f19565b6040516103e59190613690565b60405180910390f35b3480156103fa57600080fd5b506104156004803603810190610410919061330c565b612f6d565b6040516104229190613635565b60405180910390f35b6104456004803603810190610440919061330c565b61300d565b005b60006060610453613211565b606060008060006003548810801561046c575060008810155b6104ab576040517f08c379a00000000000000000000000000000000000000000000000000000000081526004016104a290613dea565b60405180910390fd5b60008060008a815260200190815260200160002060405180610120016040529081600082015481526020016001820160009054906101000a900473ffffffffffffffffffffffffffffffffffffffff1673ffffffffffffffffffffffffffffffffffffffff1673ffffffffffffffffffffffffffffffffffffffff16815260200160028201805461053b90613e39565b80601f016020809104026020016040519081016040528092919081815260200182805461056790613e39565b80156105b45780601f10610589576101008083540402835291602001916105b4565b820191906000526020600020905b81548152906001019060200180831161059757829003601f168201915b505050505081526020016003820154815260200160048201604051806101000160405290816000820180546105e890613e39565b80601f016020809104026020016040519081016040528092919081815260200182805461061490613e39565b80156106615780601f1061063657610100808354040283529160200191610661565b820191906000526020600020905b81548152906001019060200180831161064457829003601f168201915b5050505050815260200160018201805461067a90613e39565b80601f01602080910402602001604051908101604052809291908181526020018280546106a690613e39565b80156106f35780601f106106c8576101008083540402835291602001916106f3565b820191906000526020600020905b8154815290600101906020018083116106d657829003601f168201915b5050505050815260200160028201805461070c90613e39565b80601f016020809104026020016040519081016040528092919081815260200182805461073890613e39565b80156107855780601f1061075a57610100808354040283529160200191610785565b820191906000526020600020905b81548152906001019060200180831161076857829003601f168201915b5050505050815260200160038201805461079e90613e39565b80601f01602080910402602001604051908101604052809291908181526020018280546107ca90613e39565b80156108175780601f106107ec57610100808354040283529160200191610817565b820191906000526020600020905b8154815290600101906020018083116107fa57829003601f168201915b5050505050815260200160048201805461083090613e39565b80601f016020809104026020016040519081016040528092919081815260200182805461085c90613e39565b80156108a95780601f1061087e576101008083540402835291602001916108a9565b820191906000526020600020905b81548152906001019060200180831161088c57829003601f168201915b505050505081526020016005820180546108c290613e39565b80601f01602080910402602001604051908101604052809291908181526020018280546108ee90613e39565b801561093b5780601f106109105761010080835404028352916020019161093b565b820191906000526020600020905b81548152906001019060200180831161091e57829003601f168201915b5050505050815260200160068201805461095490613e39565b80601f016020809104026020016040519081016040528092919081815260200182805461098090613e39565b80156109cd5780601f106109a2576101008083540402835291602001916109cd565b820191906000526020600020905b8154815290600101906020018083116109b057829003601f168201915b505050505081526020016007820154815250508152602001600c820180546109f490613e39565b80601f0160208091040260200160405190810160405280929190818152602001828054610a2090613e39565b8015610a6d5780601f10610a4257610100808354040283529160200191610a6d565b820191906000526020600020905b815481529060010190602001808311610a5057829003601f168201915b50505050508152602001600d8201548152602001600e820160009054906101000a900460ff16151515158152602001600e820160019054906101000a900460ff16151515158152505090508060000151816040015182608001518360a001518461010001518560e001518660c00151975097509750975097509750975050919395979092949650565b600460009054906101000a900473ffffffffffffffffffffffffffffffffffffffff1673ffffffffffffffffffffffffffffffffffffffff163373ffffffffffffffffffffffffffffffffffffffff1614610b86576040517f08c379a0000000000000000000000000000000000000000000000000000000008152600401610b7d90613edc565b60405180910390fd5b60018060008373ffffffffffffffffffffffffffffffffffffffff1673ffffffffffffffffffffffffffffffffffffffff16815260200190815260200160002060006101000a81548160ff02191690831515021790555050565b60035481565b8160008082815260200190815260200160002060010160009054906101000a900473ffffffffffffffffffffffffffffffffffffffff1673ffffffffffffffffffffffffffffffffffffffff163373ffffffffffffffffffffffffffffffffffffffff1614610c8a576040517f08c379a0000000000000000000000000000000000000000000000000000000008152600401610c8190613f6e565b60405180910390fd5b600073ffffffffffffffffffffffffffffffffffffffff168273ffffffffffffffffffffffffffffffffffffffff1603610cf9576040517f08c379a0000000000000000000000000000000000000000000000000000000008152600401610cf090613fda565b60405180910390fd5b8173ffffffffffffffffffffffffffffffffffffffff1660008085815260200190815260200160002060010160009054906101000a900473ffffffffffffffffffffffffffffffffffffffff1673ffffffffffffffffffffffffffffffffffffffff1603610d9c576040517f08c379a0000000000000000000000000000000000000000000000000000000008152600401610d939061406c565b60405180910390fd5b8173ffffffffffffffffffffffffffffffffffffffff1660008085815260200190815260200160002060010160009054906101000a900473ffffffffffffffffffffffffffffffffffffffff1673ffffffffffffffffffffffffffffffffffffffff167f8be0079c531659141344cd1fd0a4f28419497f9722a3daafe3b4186f6b6457e060405160405180910390a38160008085815260200190815260200160002060010160006101000a81548173ffffffffffffffffffffffffffffffffffffffff021916908373ffffffffffffffffffffffffffffffffffffffff160217905550505050565b6000600354905090565b6000600160008373ffffffffffffffffffffffffffffffffffffffff1673ffffffffffffffffffffffffffffffffffffffff16815260200190815260200160002060009054906101000a900460ff169050919050565b600460009054906101000a900473ffffffffffffffffffffffffffffffffffffffff1673ffffffffffffffffffffffffffffffffffffffff163373ffffffffffffffffffffffffffffffffffffffff1614610f74576040517f08c379a0000000000000000000000000000000000000000000000000000000008152600401610f6b90613edc565b60405180910390fd5b600160008273ffffffffffffffffffffffffffffffffffffffff1673ffffffffffffffffffffffffffffffffffffffff16815260200190815260200160002060006101000a81549060ff021916905550565b60606000805b60035481101561101f57600080828152602001908152602001600020600e0160019054906101000a900460ff1661100c578180611008906140bb565b9250505b8080611017906140bb565b915050610fcc565b5060008167ffffffffffffffff81111561103c5761103b61398e565b5b60405190808252806020026020018201604052801561107557816020015b611062613256565b81526020019060019003908161105a5790505b5090506000805b6003548110156116f657600080828152602001908152602001600020600e0160019054906101000a900460ff166116e35760008082815260200190815260200160002060405180610120016040529081600082015481526020016001820160009054906101000a900473ffffffffffffffffffffffffffffffffffffffff1673ffffffffffffffffffffffffffffffffffffffff1673ffffffffffffffffffffffffffffffffffffffff16815260200160028201805461113b90613e39565b80601f016020809104026020016040519081016040528092919081815260200182805461116790613e39565b80156111b45780601f10611189576101008083540402835291602001916111b4565b820191906000526020600020905b81548152906001019060200180831161119757829003601f168201915b505050505081526020016003820154815260200160048201604051806101000160405290816000820180546111e890613e39565b80601f016020809104026020016040519081016040528092919081815260200182805461121490613e39565b80156112615780601f1061123657610100808354040283529160200191611261565b820191906000526020600020905b81548152906001019060200180831161124457829003601f168201915b5050505050815260200160018201805461127a90613e39565b80601f01602080910402602001604051908101604052809291908181526020018280546112a690613e39565b80156112f35780601f106112c8576101008083540402835291602001916112f3565b820191906000526020600020905b8154815290600101906020018083116112d657829003601f168201915b5050505050815260200160028201805461130c90613e39565b80601f016020809104026020016040519081016040528092919081815260200182805461133890613e39565b80156113855780601f1061135a57610100808354040283529160200191611385565b820191906000526020600020905b81548152906001019060200180831161136857829003601f168201915b5050505050815260200160038201805461139e90613e39565b80601f01602080910402602001604051908101604052809291908181526020018280546113ca90613e39565b80156114175780601f106113ec57610100808354040283529160200191611417565b820191906000526020600020905b8154815290600101906020018083116113fa57829003601f168201915b5050505050815260200160048201805461143090613e39565b80601f016020809104026020016040519081016040528092919081815260200182805461145c90613e39565b80156114a95780601f1061147e576101008083540402835291602001916114a9565b820191906000526020600020905b81548152906001019060200180831161148c57829003601f168201915b505050505081526020016005820180546114c290613e39565b80601f01602080910402602001604051908101604052809291908181526020018280546114ee90613e39565b801561153b5780601f106115105761010080835404028352916020019161153b565b820191906000526020600020905b81548152906001019060200180831161151e57829003601f168201915b5050505050815260200160068201805461155490613e39565b80601f016020809104026020016040519081016040528092919081815260200182805461158090613e39565b80156115cd5780601f106115a2576101008083540402835291602001916115cd565b820191906000526020600020905b8154815290600101906020018083116115b057829003601f168201915b505050505081526020016007820154815250508152602001600c820180546115f490613e39565b80601f016020809104026020016040519081016040528092919081815260200182805461162090613e39565b801561166d5780601f106116425761010080835404028352916020019161166d565b820191906000526020600020905b81548152906001019060200180831161165057829003601f168201915b50505050508152602001600d8201548152602001600e820160009054906101000a900460ff16151515158152602001600e820160019054906101000a900460ff1615151515815250508383815181106116c9576116c8614103565b5b602002602001018190525081806116df906140bb565b9250505b80806116ee906140bb565b91505061107c565b5081935050505090565b60606000805b60035481101561179a578373ffffffffffffffffffffffffffffffffffffffff1660008083815260200190815260200160002060010160009054906101000a900473ffffffffffffffffffffffffffffffffffffffff1673ffffffffffffffffffffffffffffffffffffffff1603611787578180611783906140bb565b9250505b8080611792906140bb565b915050611706565b5060008167ffffffffffffffff8111156117b7576117b661398e565b5b6040519080825280602002602001820160405280156117f057816020015b6117dd613256565b8152602001906001900390816117d55790505b5090506000805b600354811015611eb2578573ffffffffffffffffffffffffffffffffffffffff1660008083815260200190815260200160002060010160009054906101000a900473ffffffffffffffffffffffffffffffffffffffff1673ffffffffffffffffffffffffffffffffffffffff1603611e9f5760008082815260200190815260200160002060405180610120016040529081600082015481526020016001820160009054906101000a900473ffffffffffffffffffffffffffffffffffffffff1673ffffffffffffffffffffffffffffffffffffffff1673ffffffffffffffffffffffffffffffffffffffff1681526020016002820180546118f790613e39565b80601f016020809104026020016040519081016040528092919081815260200182805461192390613e39565b80156119705780601f1061194557610100808354040283529160200191611970565b820191906000526020600020905b81548152906001019060200180831161195357829003601f168201915b505050505081526020016003820154815260200160048201604051806101000160405290816000820180546119a490613e39565b80601f01602080910402602001604051908101604052809291908181526020018280546119d090613e39565b8015611a1d5780601f106119f257610100808354040283529160200191611a1d565b820191906000526020600020905b815481529060010190602001808311611a0057829003601f168201915b50505050508152602001600182018054611a3690613e39565b80601f0160208091040260200160405190810160405280929190818152602001828054611a6290613e39565b8015611aaf5780601f10611a8457610100808354040283529160200191611aaf565b820191906000526020600020905b815481529060010190602001808311611a9257829003601f168201915b50505050508152602001600282018054611ac890613e39565b80601f0160208091040260200160405190810160405280929190818152602001828054611af490613e39565b8015611b415780601f10611b1657610100808354040283529160200191611b41565b820191906000526020600020905b815481529060010190602001808311611b2457829003601f168201915b50505050508152602001600382018054611b5a90613e39565b80601f0160208091040260200160405190810160405280929190818152602001828054611b8690613e39565b8015611bd35780601f10611ba857610100808354040283529160200191611bd3565b820191906000526020600020905b815481529060010190602001808311611bb657829003601f168201915b50505050508152602001600482018054611bec90613e39565b80601f0160208091040260200160405190810160405280929190818152602001828054611c1890613e39565b8015611c655780601f10611c3a57610100808354040283529160200191611c65565b820191906000526020600020905b815481529060010190602001808311611c4857829003601f168201915b50505050508152602001600582018054611c7e90613e39565b80601f0160208091040260200160405190810160405280929190818152602001828054611caa90613e39565b8015611cf75780601f10611ccc57610100808354040283529160200191611cf7565b820191906000526020600020905b815481529060010190602001808311611cda57829003601f168201915b50505050508152602001600682018054611d1090613e39565b80601f0160208091040260200160405190810160405280929190818152602001828054611d3c90613e39565b8015611d895780601f10611d5e57610100808354040283529160200191611d89565b820191906000526020600020905b815481529060010190602001808311611d6c57829003601f168201915b505050505081526020016007820154815250508152602001600c82018054611db090613e39565b80601f0160208091040260200160405190810160405280929190818152602001828054611ddc90613e39565b8015611e295780601f10611dfe57610100808354040283529160200191611e29565b820191906000526020600020905b815481529060010190602001808311611e0c57829003601f168201915b50505050508152602001600d8201548152602001600e820160009054906101000a900460ff16151515158152602001600e820160019054906101000a900460ff161515151581525050838381518110611e8557611e84614103565b5b60200260200101819052508180611e9b906140bb565b9250505b8080611eaa906140bb565b9150506117f7565b50819350505050919050565b6000600460009054906101000a900473ffffffffffffffffffffffffffffffffffffffff16905090565b60606000805b600354811015611f4257600080828152602001908152602001600020600e0160019054906101000a900460ff1615611f2f578180611f2b906140bb565b9250505b8080611f3a906140bb565b915050611eee565b5060008167ffffffffffffffff811115611f5f57611f5e61398e565b5b604051908082528060200260200182016040528015611f9857816020015b611f85613256565b815260200190600190039081611f7d5790505b5090506000805b60035481101561261a57600080828152602001908152602001600020600e0160019054906101000a900460ff16156126075760008082815260200190815260200160002060405180610120016040529081600082015481526020016001820160009054906101000a900473ffffffffffffffffffffffffffffffffffffffff1673ffffffffffffffffffffffffffffffffffffffff1673ffffffffffffffffffffffffffffffffffffffff16815260200160028201805461205f90613e39565b80601f016020809104026020016040519081016040528092919081815260200182805461208b90613e39565b80156120d85780601f106120ad576101008083540402835291602001916120d8565b820191906000526020600020905b8154815290600101906020018083116120bb57829003601f168201915b5050505050815260200160038201548152602001600482016040518061010001604052908160008201805461210c90613e39565b80601f016020809104026020016040519081016040528092919081815260200182805461213890613e39565b80156121855780601f1061215a57610100808354040283529160200191612185565b820191906000526020600020905b81548152906001019060200180831161216857829003601f168201915b5050505050815260200160018201805461219e90613e39565b80601f01602080910402602001604051908101604052809291908181526020018280546121ca90613e39565b80156122175780601f106121ec57610100808354040283529160200191612217565b820191906000526020600020905b8154815290600101906020018083116121fa57829003601f168201915b5050505050815260200160028201805461223090613e39565b80601f016020809104026020016040519081016040528092919081815260200182805461225c90613e39565b80156122a95780601f1061227e576101008083540402835291602001916122a9565b820191906000526020600020905b81548152906001019060200180831161228c57829003601f168201915b505050505081526020016003820180546122c290613e39565b80601f01602080910402602001604051908101604052809291908181526020018280546122ee90613e39565b801561233b5780601f106123105761010080835404028352916020019161233b565b820191906000526020600020905b81548152906001019060200180831161231e57829003601f168201915b5050505050815260200160048201805461235490613e39565b80601f016020809104026020016040519081016040528092919081815260200182805461238090613e39565b80156123cd5780601f106123a2576101008083540402835291602001916123cd565b820191906000526020600020905b8154815290600101906020018083116123b057829003601f168201915b505050505081526020016005820180546123e690613e39565b80601f016020809104026020016040519081016040528092919081815260200182805461241290613e39565b801561245f5780601f106124345761010080835404028352916020019161245f565b820191906000526020600020905b81548152906001019060200180831161244257829003601f168201915b5050505050815260200160068201805461247890613e39565b80601f01602080910402602001604051908101604052809291908181526020018280546124a490613e39565b80156124f15780601f106124c6576101008083540402835291602001916124f1565b820191906000526020600020905b8154815290600101906020018083116124d457829003601f168201915b505050505081526020016007820154815250508152602001600c8201805461251890613e39565b80601f016020809104026020016040519081016040528092919081815260200182805461254490613e39565b80156125915780601f1061256657610100808354040283529160200191612591565b820191906000526020600020905b81548152906001019060200180831161257457829003601f168201915b50505050508152602001600d8201548152602001600e820160009054906101000a900460ff16151515158152602001600e820160019054906101000a900460ff1615151515815250508383815181106125ed576125ec614103565b5b60200260200101819052508180612603906140bb565b9250505b8080612612906140bb565b915050611f9f565b5081935050505090565b6000865111612668576040517f08c379a000000000000000000000000000000000000000000000000000000000815260040161265f9061417e565b60405180910390fd5b6000846000015151116126b0576040517f08c379a00000000000000000000000000000000000000000000000000000000081526004016126a7906141ea565b60405180910390fd5b6000846020015151116126f8576040517f08c379a00000000000000000000000000000000000000000000000000000000081526004016126ef90614256565b60405180910390fd5b600084606001515111612740576040517f08c379a0000000000000000000000000000000000000000000000000000000008152600401612737906142c2565b60405180910390fd5b600084604001515111612788576040517f08c379a000000000000000000000000000000000000000000000000000000000815260040161277f9061432e565b60405180910390fd5b6000846080015151116127d0576040517f08c379a00000000000000000000000000000000000000000000000000000000081526004016127c79061439a565b60405180910390fd5b60008460a001515111612818576040517f08c379a000000000000000000000000000000000000000000000000000000000815260040161280f90614406565b60405180910390fd5b60008460c001515111612860576040517f08c379a000000000000000000000000000000000000000000000000000000000815260040161285790614472565b60405180910390fd5b60008460e00151116128a7576040517f08c379a000000000000000000000000000000000000000000000000000000000815260040161289e906144de565b60405180910390fd5b60008351116128eb576040517f08c379a00000000000000000000000000000000000000000000000000000000081526004016128e29061454a565b60405180910390fd5b6002600086815260200190815260200160002060009054906101000a900460ff161561294c576040517f08c379a0000000000000000000000000000000000000000000000000000000008152600401612943906145dc565b60405180910390fd5b60405180610120016040528060035481526020013373ffffffffffffffffffffffffffffffffffffffff16815260200187815260200186815260200185815260200184815260200183815260200182151581526020016000151581525060008060035481526020019081526020016000206000820151816000015560208201518160010160006101000a81548173ffffffffffffffffffffffffffffffffffffffff021916908373ffffffffffffffffffffffffffffffffffffffff1602179055506040820151816002019081612a2391906147a8565b50606082015181600301556080820151816004016000820151816000019081612a4c91906147a8565b506020820151816001019081612a6291906147a8565b506040820151816002019081612a7891906147a8565b506060820151816003019081612a8e91906147a8565b506080820151816004019081612aa491906147a8565b5060a0820151816005019081612aba91906147a8565b5060c0820151816006019081612ad091906147a8565b5060e08201518160070155505060a082015181600c019081612af291906147a8565b5060c082015181600d015560e082015181600e0160006101000a81548160ff02191690831515021790555061010082015181600e0160016101000a81548160ff02191690831515021790555090505060036000815480929190612b54906140bb565b919050555060016002600087815260200190815260200160002060006101000a81548160ff021916908315150217905550505050505050565b600160003373ffffffffffffffffffffffffffffffffffffffff1673ffffffffffffffffffffffffffffffffffffffff16815260200190815260200160002060009054906101000a900460ff16612c19576040517f08c379a0000000000000000000000000000000000000000000000000000000008152600401612c10906148ec565b60405180910390fd5b60001515600080838152602001908152602001600020600e0160019054906101000a900460ff16151514612c82576040517f08c379a0000000000000000000000000000000000000000000000000000000008152600401612c799061497e565b60405180910390fd5b6001600080838152602001908152602001600020600e0160016101000a81548160ff02191690831515021790555050565b8160008082815260200190815260200160002060010160009054906101000a900473ffffffffffffffffffffffffffffffffffffffff1673ffffffffffffffffffffffffffffffffffffffff163373ffffffffffffffffffffffffffffffffffffffff1614612d57576040517f08c379a0000000000000000000000000000000000000000000000000000000008152600401612d4e90613f6e565b60405180910390fd5b600080848152602001908152602001600020600e0160019054906101000a900460ff16612db9576040517f08c379a0000000000000000000000000000000000000000000000000000000008152600401612db090614a10565b60405180910390fd5b6001600080858152602001908152602001600020600e0160006101000a81548160ff02191690831515021790555081600080858152602001908152602001600020600d018190555060008084815260200190815260200160002060010160009054906101000a900473ffffffffffffffffffffffffffffffffffffffff1673ffffffffffffffffffffffffffffffffffffffff16837fe858c71651a6b8b211360ff94c91a2d9f9f4497f6e9146e3e8e1a700722b2e0784604051612e7d9190613635565b60405180910390a3505050565b60007fcb91d30da6cfcf28e952219c25bd82e688aa853b5bfcfe195fd4b70cd8252f4d33604051612ebb9190613969565b60405180910390a1600460009054906101000a900473ffffffffffffffffffffffffffffffffffffffff1673ffffffffffffffffffffffffffffffffffffffff163373ffffffffffffffffffffffffffffffffffffffff1614905090565b6000600160003373ffffffffffffffffffffffffffffffffffffffff1673ffffffffffffffffffffffffffffffffffffffff16815260200190815260200160002060009054906101000a900460ff16905090565b600080600090505b600354811015612fcc57826000808381526020019081526020016000206003015403612fb95760008082815260200190815260200160002060000154915050613008565b8080612fc4906140bb565b915050612f75565b506040517f08c379a0000000000000000000000000000000000000000000000000000000008152600401612fff90614aa2565b60405180910390fd5b919050565b600080828152602001908152602001600020600e0160019054906101000a900460ff1661306f576040517f08c379a000000000000000000000000000000000000000000000000000000000815260040161306690614a10565b60405180910390fd5b600080828152602001908152602001600020600e0160009054906101000a900460ff166130d1576040517f08c379a00000000000000000000000000000000000000000000000000000000081526004016130c890614b0e565b60405180910390fd5b600080828152602001908152602001600020600d01543414613128576040517f08c379a000000000000000000000000000000000000000000000000000000000815260040161311f90614b7a565b60405180910390fd5b3360008083815260200190815260200160002060010160006101000a81548173ffffffffffffffffffffffffffffffffffffffff021916908373ffffffffffffffffffffffffffffffffffffffff1602179055506000806000838152602001908152602001600020600e0160006101000a81548160ff0219169083151502179055503373ffffffffffffffffffffffffffffffffffffffff16817f2ecc42622b7fc13403eb178d6475f112f2672ca7f533b668bc9cf171560560ac600080858152602001908152602001600020600d01546040516132069190613635565b60405180910390a350565b60405180610100016040528060608152602001606081526020016060815260200160608152602001606081526020016060815260200160608152602001600081525090565b60405180610120016040528060008152602001600073ffffffffffffffffffffffffffffffffffffffff168152602001606081526020016000815260200161329c613211565b815260200160608152602001600081526020016000151581526020016000151581525090565b6000604051905090565b600080fd5b600080fd5b6000819050919050565b6132e9816132d6565b81146132f457600080fd5b50565b600081359050613306816132e0565b92915050565b600060208284031215613322576133216132cc565b5b6000613330848285016132f7565b91505092915050565b613342816132d6565b82525050565b600081519050919050565b600082825260208201905092915050565b60005b83811015613382578082015181840152602081019050613367565b60008484015250505050565b6000601f19601f8301169050919050565b60006133aa82613348565b6133b48185613353565b93506133c4818560208601613364565b6133cd8161338e565b840191505092915050565b600082825260208201905092915050565b60006133f482613348565b6133fe81856133d8565b935061340e818560208601613364565b6134178161338e565b840191505092915050565b61342b816132d6565b82525050565b600061010083016000830151848203600086015261344f82826133e9565b9150506020830151848203602086015261346982826133e9565b9150506040830151848203604086015261348382826133e9565b9150506060830151848203606086015261349d82826133e9565b915050608083015184820360808601526134b782826133e9565b91505060a083015184820360a08601526134d182826133e9565b91505060c083015184820360c08601526134eb82826133e9565b91505060e083015161350060e0860182613422565b508091505092915050565b60008115159050919050565b6135208161350b565b82525050565b600060e08201905061353b600083018a613339565b818103602083015261354d818961339f565b905081810360408301526135618188613431565b90508181036060830152613575818761339f565b90506135846080830186613517565b61359160a0830185613517565b61359e60c0830184613339565b98975050505050505050565b600073ffffffffffffffffffffffffffffffffffffffff82169050919050565b60006135d5826135aa565b9050919050565b6135e5816135ca565b81146135f057600080fd5b50565b600081359050613602816135dc565b92915050565b60006020828403121561361e5761361d6132cc565b5b600061362c848285016135f3565b91505092915050565b600060208201905061364a6000830184613339565b92915050565b60008060408385031215613667576136666132cc565b5b6000613675858286016132f7565b9250506020613686858286016135f3565b9150509250929050565b60006020820190506136a56000830184613517565b92915050565b600081519050919050565b600082825260208201905092915050565b6000819050602082019050919050565b6136e0816135ca565b82525050565b600061010083016000830151848203600086015261370482826133e9565b9150506020830151848203602086015261371e82826133e9565b9150506040830151848203604086015261373882826133e9565b9150506060830151848203606086015261375282826133e9565b9150506080830151848203608086015261376c82826133e9565b91505060a083015184820360a086015261378682826133e9565b91505060c083015184820360c08601526137a082826133e9565b91505060e08301516137b560e0860182613422565b508091505092915050565b6137c98161350b565b82525050565b6000610120830160008301516137e86000860182613422565b5060208301516137fb60208601826136d7565b506040830151848203604086015261381382826133e9565b91505060608301516138286060860182613422565b506080830151848203608086015261384082826136e6565b91505060a083015184820360a086015261385a82826133e9565b91505060c083015161386f60c0860182613422565b5060e083015161388260e08601826137c0565b506101008301516138976101008601826137c0565b508091505092915050565b60006138ae83836137cf565b905092915050565b6000602082019050919050565b60006138ce826136ab565b6138d881856136b6565b9350836020820285016138ea856136c7565b8060005b85811015613926578484038952815161390785826138a2565b9450613912836138b6565b925060208a019950506001810190506138ee565b50829750879550505050505092915050565b6000602082019050818103600083015261395281846138c3565b905092915050565b613963816135ca565b82525050565b600060208201905061397e600083018461395a565b92915050565b600080fd5b600080fd5b7f4e487b7100000000000000000000000000000000000000000000000000000000600052604160045260246000fd5b6139c68261338e565b810181811067ffffffffffffffff821117156139e5576139e461398e565b5b80604052505050565b60006139f86132c2565b9050613a0482826139bd565b919050565b600067ffffffffffffffff821115613a2457613a2361398e565b5b613a2d8261338e565b9050602081019050919050565b82818337600083830152505050565b6000613a5c613a5784613a09565b6139ee565b905082815260208101848484011115613a7857613a77613989565b5b613a83848285613a3a565b509392505050565b600082601f830112613aa057613a9f613984565b5b8135613ab0848260208601613a49565b91505092915050565b600080fd5b600080fd5b60006101008284031215613ada57613ad9613ab9565b5b613ae56101006139ee565b9050600082013567ffffffffffffffff811115613b0557613b04613abe565b5b613b1184828501613a8b565b600083015250602082013567ffffffffffffffff811115613b3557613b34613abe565b5b613b4184828501613a8b565b602083015250604082013567ffffffffffffffff811115613b6557613b64613abe565b5b613b7184828501613a8b565b604083015250606082013567ffffffffffffffff811115613b9557613b94613abe565b5b613ba184828501613a8b565b606083015250608082013567ffffffffffffffff811115613bc557613bc4613abe565b5b613bd184828501613a8b565b60808301525060a082013567ffffffffffffffff811115613bf557613bf4613abe565b5b613c0184828501613a8b565b60a08301525060c082013567ffffffffffffffff811115613c2557613c24613abe565b5b613c3184828501613a8b565b60c08301525060e0613c45848285016132f7565b60e08301525092915050565b613c5a8161350b565b8114613c6557600080fd5b50565b600081359050613c7781613c51565b92915050565b60008060008060008060c08789031215613c9a57613c996132cc565b5b600087013567ffffffffffffffff811115613cb857613cb76132d1565b5b613cc489828a01613a8b565b9650506020613cd589828a016132f7565b955050604087013567ffffffffffffffff811115613cf657613cf56132d1565b5b613d0289828a01613ac3565b945050606087013567ffffffffffffffff811115613d2357613d226132d1565b5b613d2f89828a01613a8b565b9350506080613d4089828a016132f7565b92505060a0613d5189828a01613c68565b9150509295509295509295565b60008060408385031215613d7557613d746132cc565b5b6000613d83858286016132f7565b9250506020613d94858286016132f7565b9150509250929050565b7f496e76616c6964205f6964206f6620746865206c616e64000000000000000000600082015250565b6000613dd4601783613353565b9150613ddf82613d9e565b602082019050919050565b60006020820190508181036000830152613e0381613dc7565b9050919050565b7f4e487b7100000000000000000000000000000000000000000000000000000000600052602260045260246000fd5b60006002820490506001821680613e5157607f821691505b602082108103613e6457613e63613e0a565b5b50919050565b7f596f7520617265206e6f7420617574686f72697a656420746f20706572666f7260008201527f6d207468697320616374696f6e2e000000000000000000000000000000000000602082015250565b6000613ec6602e83613353565b9150613ed182613e6a565b604082019050919050565b60006020820190508181036000830152613ef581613eb9565b9050919050565b7f596f7520617265206e6f7420746865206f776e6572206f6620746865206c616e60008201527f6400000000000000000000000000000000000000000000000000000000000000602082015250565b6000613f58602183613353565b9150613f6382613efc565b604082019050919050565b60006020820190508181036000830152613f8781613f4b565b9050919050565b7f496e76616c696420616464726573730000000000000000000000000000000000600082015250565b6000613fc4600f83613353565b9150613fcf82613f8e565b602082019050919050565b60006020820190508181036000830152613ff381613fb7565b9050919050565b7f596f752063616e2774207472616e7366657220746865206f776e65727368697060008201527f20746f20796f757273656c660000000000000000000000000000000000000000602082015250565b6000614056602c83613353565b915061406182613ffa565b604082019050919050565b6000602082019050818103600083015261408581614049565b9050919050565b7f4e487b7100000000000000000000000000000000000000000000000000000000600052601160045260246000fd5b60006140c6826132d6565b91507fffffffffffffffffffffffffffffffffffffffffffffffffffffffffffffffff82036140f8576140f761408c565b5b600182019050919050565b7f4e487b7100000000000000000000000000000000000000000000000000000000600052603260045260246000fd5b7f4e616d652063616e6e6f7420626520656d7074792e0000000000000000000000600082015250565b6000614168601583613353565b915061417382614132565b602082019050919050565b600060208201905081810360008301526141978161415b565b9050919050565b7f53746174652063616e6e6f7420626520656d7074792e00000000000000000000600082015250565b60006141d4601683613353565b91506141df8261419e565b602082019050919050565b60006020820190508181036000830152614203816141c7565b9050919050565b7f44697374726963742063616e6e6f7420626520656d7074792e00000000000000600082015250565b6000614240601983613353565b915061424b8261420a565b602082019050919050565b6000602082019050818103600083015261426f81614233565b9050919050565b7f54656873696c2063616e6e6f7420626520656d7074792e000000000000000000600082015250565b60006142ac601783613353565b91506142b782614276565b602082019050919050565b600060208201905081810360008301526142db8161429f565b9050919050565b7f56696c6c6167652063616e6e6f7420626520656d7074792e0000000000000000600082015250565b6000614318601883613353565b9150614323826142e2565b602082019050919050565b600060208201905081810360008301526143478161430b565b9050919050565b7f50696e636f64652063616e6e6f7420626520656d7074792e0000000000000000600082015250565b6000614384601883613353565b915061438f8261434e565b602082019050919050565b600060208201905081810360008301526143b381614377565b9050919050565b7f4c617469747564652063616e6e6f7420626520656d7074792e00000000000000600082015250565b60006143f0601983613353565b91506143fb826143ba565b602082019050919050565b6000602082019050818103600083015261441f816143e3565b9050919050565b7f4c6f6e6769747564652063616e6e6f7420626520656d7074792e000000000000600082015250565b600061445c601a83613353565b915061446782614426565b602082019050919050565b6000602082019050818103600083015261448b8161444f565b9050919050565b7f417265612063616e6e6f7420626520656d7074792e0000000000000000000000600082015250565b60006144c8601583613353565b91506144d382614492565b602082019050919050565b600060208201905081810360008301526144f7816144bb565b9050919050565b7f5265636f726420686173682063616e6e6f7420626520656d7074792e00000000600082015250565b6000614534601c83613353565b915061453f826144fe565b602082019050919050565b6000602082019050818103600083015261456381614527565b9050919050565b7f4c616e6420776974682074686973206d75746174696f6e206e756d626572206160008201527f6c72656164792065786973747300000000000000000000000000000000000000602082015250565b60006145c6602d83613353565b91506145d18261456a565b604082019050919050565b600060208201905081810360008301526145f5816145b9565b9050919050565b60008190508160005260206000209050919050565b60006020601f8301049050919050565b600082821b905092915050565b60006008830261465e7fffffffffffffffffffffffffffffffffffffffffffffffffffffffffffffffff82614621565b6146688683614621565b95508019841693508086168417925050509392505050565b6000819050919050565b60006146a56146a061469b846132d6565b614680565b6132d6565b9050919050565b6000819050919050565b6146bf8361468a565b6146d36146cb826146ac565b84845461462e565b825550505050565b600090565b6146e86146db565b6146f38184846146b6565b505050565b5b818110156147175761470c6000826146e0565b6001810190506146f9565b5050565b601f82111561475c5761472d816145fc565b61473684614611565b81016020851015614745578190505b61475961475185614611565b8301826146f8565b50505b505050565b600082821c905092915050565b600061477f60001984600802614761565b1980831691505092915050565b6000614798838361476e565b9150826002028217905092915050565b6147b182613348565b67ffffffffffffffff8111156147ca576147c961398e565b5b6147d48254613e39565b6147df82828561471b565b600060209050601f8311600181146148125760008415614800578287015190505b61480a858261478c565b865550614872565b601f198416614820866145fc565b60005b8281101561484857848901518255600182019150602085019450602081019050614823565b868310156148655784890151614861601f89168261476e565b8355505b6001600288020188555050505b505050505050565b7f596f7520617265206e6f74206120676f7665726e6d656e74206f66666963696160008201527f6c2e000000000000000000000000000000000000000000000000000000000000602082015250565b60006148d6602283613353565b91506148e18261487a565b604082019050919050565b60006020820190508181036000830152614905816148c9565b9050919050565b7f54686973206c616e64207265636f726420697320616c7265616479207665726960008201527f666965642e000000000000000000000000000000000000000000000000000000602082015250565b6000614968602583613353565b91506149738261490c565b604082019050919050565b600060208201905081810360008301526149978161495b565b9050919050565b7f4c616e64206973206e6f7420766572696669656420627920746865206f66666960008201527f6369616c73000000000000000000000000000000000000000000000000000000602082015250565b60006149fa602583613353565b9150614a058261499e565b604082019050919050565b60006020820190508181036000830152614a29816149ed565b9050919050565b7f4c616e6420776974682074686973206d75746174696f6e206e756d626572206e60008201527f6f7420666f756e64000000000000000000000000000000000000000000000000602082015250565b6000614a8c602883613353565b9150614a9782614a30565b604082019050919050565b60006020820190508181036000830152614abb81614a7f565b9050919050565b7f4c616e64206973206e6f7420666f722073616c65000000000000000000000000600082015250565b6000614af8601483613353565b9150614b0382614ac2565b602082019050919050565b60006020820190508181036000830152614b2781614aeb565b9050919050565b7f496e636f727265637420616d6f756e742073656e740000000000000000000000600082015250565b6000614b64601583613353565b9150614b6f82614b2e565b602082019050919050565b60006020820190508181036000830152614b9381614b57565b905091905056fea26469706673582212205274549e72bfea2db4799651505d365eb12f554845008543f79122bf3dcbf8b464736f6c63430008110033",
  "immutableReferences": {},
  "source": "// SPDX-License-Identifier: MIT\n\npragma solidity >=0.7.0 <0.9.0;\n\ncontract LandManagementSystem {\n    struct Location {\n        string state;\n        string district;\n        string village;\n        string tehsil;\n        string pincode;\n        string latitude;\n        string longitude;\n        uint256 area;\n    }\n    struct LandRecord {\n        uint256 id;\n        address owner;\n        string name;\n        uint256 mutationNumber;\n        Location location;\n        string recordHash;\n        uint256 price;\n        bool isForSale;\n        bool isVerified;\n    }\n\n    mapping(uint256 => LandRecord) private landRecords;\n    mapping(address => bool) private governmentOfficials;\n    mapping(uint256 => bool) private _mutationNumbers;\n\n    uint256 public totalLands = 0;\n\n    address private admin;\n\n    constructor() {\n        admin = msg.sender;\n    }\n\n    event LandForSale(uint256 indexed id, address indexed owner, uint256 price);\n    event LandSold(uint256 indexed id, address indexed buyer, uint256 price);\n\n     event LogDebug(address message);\n\n    event OwnershipTransferred(\n        address indexed previousOwner,\n        address indexed newOwner\n    );\n\n    modifier onlyOwner(uint256 _id) {\n        require(\n            msg.sender == landRecords[_id].owner,\n            \"You are not the owner of the land\"\n        );\n        _;\n    }\n    modifier onlyGovernmentOfficial() {\n        require(\n            governmentOfficials[msg.sender],\n            \"You are not a government official.\"\n        );\n        _;\n    }\n\n    modifier onlyAdmin() {\n        require(\n            msg.sender == admin,\n            \"You are not authorized to perform this action.\"\n        );\n        _;\n    }\n\n    function addLandRecord(\n        string memory _name,\n        uint256 _mutationNumber,\n        Location memory _location,\n        string memory _recordHash,\n        uint256 _price,\n        bool _isForSale\n    ) public {\n        require(bytes(_name).length > 0, \"Name cannot be empty.\");\n        require(bytes(_location.state).length > 0, \"State cannot be empty.\");\n        require(\n            bytes(_location.district).length > 0,\n            \"District cannot be empty.\"\n        );\n        require(bytes(_location.tehsil).length > 0, \"Tehsil cannot be empty.\");\n        require(\n            bytes(_location.village).length > 0,\n            \"Village cannot be empty.\"\n        );\n        require(\n            bytes(_location.pincode).length > 0,\n            \"Pincode cannot be empty.\"\n        );\n        require(\n            bytes(_location.latitude).length > 0,\n            \"Latitude cannot be empty.\"\n        );\n        require(\n            bytes(_location.longitude).length > 0,\n            \"Longitude cannot be empty.\"\n        );\n        require(_location.area > 0, \"Area cannot be empty.\");\n        require(bytes(_recordHash).length > 0, \"Record hash cannot be empty.\");\n        require(\n            !_mutationNumbers[_mutationNumber],\n            \"Land with this mutation number already exists\"\n        );\n\n        landRecords[totalLands] = LandRecord(\n            totalLands,\n            msg.sender,\n            _name,\n            _mutationNumber,\n            _location,\n            _recordHash,\n            _price,\n            _isForSale,\n            false\n        );\n        totalLands++;\n        _mutationNumbers[_mutationNumber] = true;\n    }\n\n    function getLandRecord(\n        uint256 _id\n    )\n        public\n        view\n        returns (\n            uint256,\n            string memory,\n            Location memory,\n            string memory,\n            bool,\n            bool,\n            uint256\n        )\n    {\n        require(_id < totalLands && _id >= 0, \"Invalid _id of the land\");\n        LandRecord memory record = landRecords[_id];\n        return (\n            record.id,\n            record.name,\n            record.location,\n            record.recordHash,\n            record.isVerified,\n            record.isForSale,\n            record.price\n        );\n    }\n\n    function verifyLandRecord(uint256 _id) public onlyGovernmentOfficial {\n        require(\n            landRecords[_id].isVerified == false,\n            \"This land record is already verified.\"\n        );\n        landRecords[_id].isVerified = true;\n    }\n\n    function buyLand(uint256 _id) public payable {\n        require(\n            landRecords[_id].isVerified,\n            \"Land is not verified by the officials\"\n        );\n        require(landRecords[_id].isForSale, \"Land is not for sale\");\n        require(msg.value == landRecords[_id].price, \"Incorrect amount sent\");\n\n        landRecords[_id].owner = msg.sender;\n        landRecords[_id].isForSale = false;\n\n        emit LandSold(_id, msg.sender, landRecords[_id].price);\n    }\n\n    function sellLand(uint256 _id, uint256 _price) public onlyOwner(_id) {\n        require(\n            landRecords[_id].isVerified,\n            \"Land is not verified by the officials\"\n        );\n\n        landRecords[_id].isForSale = true;\n        landRecords[_id].price = _price;\n\n        emit LandForSale(_id, landRecords[_id].owner, _price);\n    }\n\n    function transferOwnership(\n        uint256 _id,\n        address newOwner\n    ) public onlyOwner(_id) {\n        require(newOwner != address(0), \"Invalid address\");\n        require(\n            landRecords[_id].owner != newOwner,\n            \"You can't transfer the ownership to yourself\"\n        );\n\n        emit OwnershipTransferred(landRecords[_id].owner, newOwner);\n\n        landRecords[_id].owner = newOwner;\n    }\n\n    function addGovernmentOfficial(address _officialAddress) public onlyAdmin {\n        governmentOfficials[_officialAddress] = true;\n    }\n\n    function removeGovernmentOfficial(\n        address _officialAddress\n    ) public onlyAdmin {\n        delete governmentOfficials[_officialAddress];\n    }\n\n    function isGovernmentOfficial(\n        address _officialAddress\n    ) public view returns (bool) {\n        return governmentOfficials[_officialAddress];\n    }\n\n    function isCurrentGovernmentOfficial() public view returns (bool) {\n        return governmentOfficials[msg.sender];\n    }\n\n    function isAdmin() public  returns (bool) {\n        emit LogDebug(msg.sender);\n        return (msg.sender == admin);\n    }\n\n    // Get the count of all land records\n    function getLandRecordCount() public view returns (uint256) {\n        return totalLands;\n    }\n\n    // Get all verified land records\n    function getVerifiedLandRecords()\n        public\n        view\n        returns (LandRecord[] memory)\n    {\n        uint256 verifiedCount = 0;\n        for (uint256 i = 0; i < totalLands; i++) {\n            if (landRecords[i].isVerified) {\n                verifiedCount++;\n            }\n        }\n\n        LandRecord[] memory verifiedRecords = new LandRecord[](verifiedCount);\n        uint256 index = 0;\n        for (uint256 i = 0; i < totalLands; i++) {\n            if (landRecords[i].isVerified) {\n                verifiedRecords[index] = landRecords[i];\n                index++;\n            }\n        }\n\n        return verifiedRecords;\n    }\n\n    // Get all unverified land records\n    function getUnverifiedLandRecords()\n        public\n        view\n        returns (LandRecord[] memory)\n    {\n        uint256 unverifiedCount = 0;\n        for (uint256 i = 0; i < totalLands; i++) {\n            if (!landRecords[i].isVerified) {\n                unverifiedCount++;\n            }\n        }\n\n        LandRecord[] memory unverifiedRecords = new LandRecord[](\n            unverifiedCount\n        );\n        uint256 index = 0;\n        for (uint256 i = 0; i < totalLands; i++) {\n            if (!landRecords[i].isVerified) {\n                unverifiedRecords[index] = landRecords[i];\n                index++;\n            }\n        }\n\n        return unverifiedRecords;\n    }\n\n    // Get all land records for the current user\n    function getLandRecordsForCurrentUser(\n        address _user\n    ) public view returns (LandRecord[] memory) {\n        uint256 userCount = 0;\n        for (uint256 i = 0; i < totalLands; i++) {\n            if (landRecords[i].owner == _user) {\n                userCount++;\n            }\n        }\n\n        LandRecord[] memory userRecords = new LandRecord[](userCount);\n        uint256 index = 0;\n        for (uint256 i = 0; i < totalLands; i++) {\n            if (landRecords[i].owner == _user) {\n                userRecords[index] = landRecords[i];\n                index++;\n            }\n        }\n\n        return userRecords;\n    }\n    \n\n    function whoIsAdmin() public view returns  (address){\n        return admin;\n    }\n    function getLandIdByMutationNumber(\n        uint256 mutationNumber\n    ) public view returns (uint256) {\n        for (uint256 i = 0; i < totalLands; i++) {\n            if (landRecords[i].mutationNumber == mutationNumber) {\n                return landRecords[i].id;\n            }\n        }\n        revert(\"Land with this mutation number not found\");\n    }\n}\n\n\n",
  "sourcePath": "/Volumes/General/CodeQuotient/Project/LandRecords/contracts/LandRecords.sol",
  "compiler": {
    "name": "solc",
    "version": "0.8.17+commit.8df45f5f.Emscripten.clang"
  },
  "schemaVersion": "3.4.10",
  "updatedAt": "2023-04-13T16:48:30.096Z",
  "networkType": "ethereum",
  "devdoc": {
    "kind": "dev",
    "methods": {},
    "version": 1
  },
  "userdoc": {
    "kind": "user",
    "methods": {},
    "version": 1
  }
}